:020000040800F2
:1000000000280020FD0100084D0200084D020008F4
:100010004D0200084D0200084D02000800000000DB
:100020000000000000000000000000004D02000879
:100030004D020008000000004D0200084D020008BB
:100040004D0200084D0200084D0200084D02000854
:100050004D0200084D0200084D0200084D02000844
:100060004D0200084D0200084D0200084D02000834
:100070004D0200084D0200084D0200084D02000824
:100080004D0200084D0200084D0200084D02000814
:100090004D0200084D0200084D0200084D02000804
:1000A0004D0200084D0200084D0200084D020008F4
:1000B0004D0200084D0200084D0200084D020008E4
:1000C0004D0200084D0200084D0200084D020008D4
:1000D0004D0200084D0200084D0200084D020008C4
:1000E0004D0200084D020008000000004D0200080B
:1000F0004D0200084D0200084D0200084D020008A4
:100100004D0200084D0200084D0200084D02000893
:100110004D0200084D0200084D0200084D02000883
:100120004D0200084D0200084D0200084D02000873
:1001300010B5054C237833B9044B13B10448AFF321
:1001400000800123237010BD00000020000000008B
:100150009802000808B5034B1BB103490348AFF3ED
:10016000008008BD00000000040000209802000884
:1001700080B483B000AF1D4B1B680C331A461C4B78
:100180001A601C4B1B681B4A43F0040313601A4B94
:100190001B68194A23F470031360174B1B68164A37
:1001A00043F400131360124B1A68138843F400538E
:1001B000138000237B6002E07B6801337B607B68F7
:1001C0004CF24F329342F7DD094B1A6813886FF3F4
:1001D0004D33138000233B6002E03B6801333B60FA
:1001E0003B684CF24F329342F7DDDCE70C080140EC
:1001F0001C00002018100240040801400D488546EC
:10020000AFF300800C480D490D4A002302E0D4589A
:10021000C4500433C4188C42F9D30A4A0A4C002350
:1002200001E013600432A242FBD300F011F8FFF7A3
:100230009FFFFEE7002800200000002000000020B3
:10024000B80200080000002020000020FEE70000A7
:1002500070B500250C4E0D4CA41BA410A54209D16D
:1002600000F01AF800250A4E0A4CA41BA410A5425F
:1002700005D170BD56F8253098470135EEE756F8A0
:10028000253098470135F2E7B0020008B0020008B7
:10029000B0020008B4020008F8B500BFF8BC08BC02
:1002A0009E467047F8B500BFF8BC08BC9E46704734
:0402B00055010008EC
:0402B400310100080C
:04000005080001FDF1
:00000001FF
